{
  "_format": "hh-sol-artifact-1",
  "contractName": "PokerLogic",
  "sourceName": "contracts/PokerLogic.sol",
  "abi": [
    {
      "inputs": [],
      "stateMutability": "nonpayable",
      "type": "constructor"
    },
    {
      "anonymous": false,
      "inputs": [
        {
          "indexed": false,
          "internalType": "uint256",
          "name": "gameId",
          "type": "uint256"
        },
        {
          "indexed": false,
          "internalType": "uint256",
          "name": "roundId",
          "type": "uint256"
        },
        {
          "indexed": false,
          "internalType": "uint8[]",
          "name": "cards",
          "type": "uint8[]"
        }
      ],
      "name": "CommunityCardsDealt",
      "type": "event"
    },
    {
      "anonymous": false,
      "inputs": [
        {
          "indexed": false,
          "internalType": "uint256",
          "name": "gameId",
          "type": "uint256"
        },
        {
          "components": [
            {
              "internalType": "enum PokerLogic.GameStatus",
              "name": "status",
              "type": "uint8"
            },
            {
              "internalType": "uint256",
              "name": "currentRoundId",
              "type": "uint256"
            },
            {
              "internalType": "uint256",
              "name": "buyInAmount",
              "type": "uint256"
            },
            {
              "internalType": "address[]",
              "name": "players",
              "type": "address[]"
            },
            {
              "internalType": "uint256",
              "name": "pot",
              "type": "uint256"
            },
            {
              "internalType": "uint256",
              "name": "smallBlind",
              "type": "uint256"
            },
            {
              "internalType": "address",
              "name": "gameAddress",
              "type": "address"
            }
          ],
          "indexed": false,
          "internalType": "struct PokerLogic.Game",
          "name": "game",
          "type": "tuple"
        }
      ],
      "name": "GameCreated",
      "type": "event"
    },
    {
      "anonymous": false,
      "inputs": [
        {
          "indexed": false,
          "internalType": "uint256",
          "name": "gameId",
          "type": "uint256"
        }
      ],
      "name": "GameFinished",
      "type": "event"
    },
    {
      "anonymous": false,
      "inputs": [
        {
          "components": [
            {
              "internalType": "uint8",
              "name": "card1",
              "type": "uint8"
            },
            {
              "internalType": "uint8",
              "name": "card2",
              "type": "uint8"
            }
          ],
          "indexed": false,
          "internalType": "struct PokerLogic.EnemyCards[]",
          "name": "enemyCards",
          "type": "tuple[]"
        },
        {
          "indexed": false,
          "internalType": "uint256",
          "name": "gameId",
          "type": "uint256"
        }
      ],
      "name": "GameStarted",
      "type": "event"
    },
    {
      "anonymous": false,
      "inputs": [
        {
          "indexed": false,
          "internalType": "uint256",
          "name": "gameId",
          "type": "uint256"
        },
        {
          "indexed": false,
          "internalType": "address",
          "name": "player",
          "type": "address"
        },
        {
          "indexed": false,
          "internalType": "uint256",
          "name": "buyIn",
          "type": "uint256"
        }
      ],
      "name": "PlayerJoined",
      "type": "event"
    },
    {
      "inputs": [
        {
          "internalType": "address",
          "name": "",
          "type": "address"
        },
        {
          "internalType": "uint256",
          "name": "",
          "type": "uint256"
        },
        {
          "internalType": "uint256",
          "name": "",
          "type": "uint256"
        }
      ],
      "name": "cardsHashes",
      "outputs": [
        {
          "internalType": "bytes32",
          "name": "card1Hash",
          "type": "bytes32"
        },
        {
          "internalType": "bytes32",
          "name": "card2Hash",
          "type": "bytes32"
        },
        {
          "internalType": "bytes32",
          "name": "enemyCard1Hash",
          "type": "bytes32"
        },
        {
          "internalType": "bytes32",
          "name": "enemyCard2Hash",
          "type": "bytes32"
        }
      ],
      "stateMutability": "view",
      "type": "function"
    },
    {
      "inputs": [
        {
          "internalType": "uint256",
          "name": "",
          "type": "uint256"
        },
        {
          "internalType": "uint256",
          "name": "",
          "type": "uint256"
        },
        {
          "internalType": "uint256",
          "name": "",
          "type": "uint256"
        }
      ],
      "name": "communityCards",
      "outputs": [
        {
          "internalType": "uint8",
          "name": "",
          "type": "uint8"
        }
      ],
      "stateMutability": "view",
      "type": "function"
    },
    {
      "inputs": [
        {
          "internalType": "uint256",
          "name": "_buyInAmount",
          "type": "uint256"
        },
        {
          "internalType": "uint256",
          "name": "_smallBlind",
          "type": "uint256"
        }
      ],
      "name": "createGame",
      "outputs": [],
      "stateMutability": "nonpayable",
      "type": "function"
    },
    {
      "inputs": [
        {
          "internalType": "uint256",
          "name": "_gameId",
          "type": "uint256"
        },
        {
          "internalType": "uint256",
          "name": "cardsNum",
          "type": "uint256"
        }
      ],
      "name": "dealCommunityCards",
      "outputs": [],
      "stateMutability": "nonpayable",
      "type": "function"
    },
    {
      "inputs": [],
      "name": "gameId",
      "outputs": [
        {
          "internalType": "uint256",
          "name": "",
          "type": "uint256"
        }
      ],
      "stateMutability": "view",
      "type": "function"
    },
    {
      "inputs": [
        {
          "internalType": "uint256",
          "name": "",
          "type": "uint256"
        },
        {
          "internalType": "uint256",
          "name": "",
          "type": "uint256"
        }
      ],
      "name": "gameRounds",
      "outputs": [
        {
          "internalType": "bool",
          "name": "active",
          "type": "bool"
        },
        {
          "internalType": "uint256",
          "name": "turn",
          "type": "uint256"
        },
        {
          "internalType": "uint256",
          "name": "highestBet",
          "type": "uint256"
        }
      ],
      "stateMutability": "view",
      "type": "function"
    },
    {
      "inputs": [
        {
          "internalType": "uint256",
          "name": "",
          "type": "uint256"
        }
      ],
      "name": "games",
      "outputs": [
        {
          "internalType": "enum PokerLogic.GameStatus",
          "name": "status",
          "type": "uint8"
        },
        {
          "internalType": "uint256",
          "name": "currentRoundId",
          "type": "uint256"
        },
        {
          "internalType": "uint256",
          "name": "buyInAmount",
          "type": "uint256"
        },
        {
          "internalType": "uint256",
          "name": "pot",
          "type": "uint256"
        },
        {
          "internalType": "uint256",
          "name": "smallBlind",
          "type": "uint256"
        },
        {
          "internalType": "address",
          "name": "gameAddress",
          "type": "address"
        }
      ],
      "stateMutability": "view",
      "type": "function"
    },
    {
      "inputs": [
        {
          "internalType": "uint256",
          "name": "_gameId",
          "type": "uint256"
        },
        {
          "internalType": "uint256",
          "name": "_buyIn",
          "type": "uint256"
        },
        {
          "components": [
            {
              "internalType": "bytes32",
              "name": "card1Hash",
              "type": "bytes32"
            },
            {
              "internalType": "bytes32",
              "name": "card2Hash",
              "type": "bytes32"
            },
            {
              "internalType": "bytes32",
              "name": "enemyCard1Hash",
              "type": "bytes32"
            },
            {
              "internalType": "bytes32",
              "name": "enemyCard2Hash",
              "type": "bytes32"
            }
          ],
          "internalType": "struct PokerLogic.CardsHashes",
          "name": "_cardsHashes",
          "type": "tuple"
        }
      ],
      "name": "joinGame",
      "outputs": [],
      "stateMutability": "payable",
      "type": "function"
    },
    {
      "inputs": [
        {
          "internalType": "address",
          "name": "",
          "type": "address"
        },
        {
          "internalType": "uint256",
          "name": "",
          "type": "uint256"
        }
      ],
      "name": "playerCurrentChips",
      "outputs": [
        {
          "internalType": "uint256",
          "name": "",
          "type": "uint256"
        }
      ],
      "stateMutability": "view",
      "type": "function"
    },
    {
      "inputs": [
        {
          "internalType": "uint256",
          "name": "_gameId",
          "type": "uint256"
        },
        {
          "internalType": "enum PokerLogic.PlayerAction",
          "name": "_action",
          "type": "uint8"
        },
        {
          "internalType": "uint256",
          "name": "_raiseAmount",
          "type": "uint256"
        }
      ],
      "name": "sendPlayerAction",
      "outputs": [],
      "stateMutability": "nonpayable",
      "type": "function"
    },
    {
      "inputs": [
        {
          "internalType": "uint256",
          "name": "_tableId",
          "type": "uint256"
        },
        {
          "internalType": "uint256[]",
          "name": "_keys",
          "type": "uint256[]"
        },
        {
          "components": [
            {
              "internalType": "uint8",
              "name": "card1",
              "type": "uint8"
            },
            {
              "internalType": "uint8",
              "name": "card2",
              "type": "uint8"
            }
          ],
          "internalType": "struct PokerLogic.PlayerCards[]",
          "name": "_cards",
          "type": "tuple[]"
        }
      ],
      "name": "showdown",
      "outputs": [],
      "stateMutability": "nonpayable",
      "type": "function"
    },
    {
      "inputs": [
        {
          "internalType": "uint256",
          "name": "_gameId",
          "type": "uint256"
        },
        {
          "components": [
            {
              "internalType": "uint8",
              "name": "card1",
              "type": "uint8"
            },
            {
              "internalType": "uint8",
              "name": "card2",
              "type": "uint8"
            }
          ],
          "internalType": "struct PokerLogic.EnemyCards[]",
          "name": "_enemyCards",
          "type": "tuple[]"
        }
      ],
      "name": "startGame",
      "outputs": [],
      "stateMutability": "nonpayable",
      "type": "function"
    }
  ],
  "bytecode": "0x608060405234801561001057600080fd5b506135ca806100206000396000f3fe6080604052600436106100a75760003560e01c806369ec2cb71161006457806369ec2cb7146101c2578063728a69991461020157806373577ac71461023e57806373f36bd11461027e578063c2991877146102a7578063d7c81b55146102d0576100a7565b8063117a5b90146100ac57806318ef654a146100ee5780633d0666551461010a578063477dc841146101335780635e48eed81461015c57806360104cef14610199575b600080fd5b3480156100b857600080fd5b506100d360048036038101906100ce91906114cb565b6102fb565b6040516100e5969594939291906115bf565b60405180910390f35b6101086004803603810190610103919061175f565b610364565b005b34801561011657600080fd5b50610131600480360381019061012c91906117d7565b61061a565b005b34801561013f57600080fd5b5061015a60048036038101906101559190611a43565b610b5b565b005b34801561016857600080fd5b50610183600480360381019061017e9190611ace565b610b60565b6040516101909190611b30565b60405180910390f35b3480156101a557600080fd5b506101c060048036038101906101bb9190611b4b565b610bb0565b005b3480156101ce57600080fd5b506101e960048036038101906101e49190611b4b565b610d93565b6040516101f893929190611ba6565b60405180910390f35b34801561020d57600080fd5b5061022860048036038101906102239190611c09565b610dd7565b6040516102359190611c49565b60405180910390f35b34801561024a57600080fd5b5061026560048036038101906102609190611c64565b610dfc565b6040516102759493929190611cc6565b60405180910390f35b34801561028a57600080fd5b506102a560048036038101906102a09190611e1e565b610e46565b005b3480156102b357600080fd5b506102ce60048036038101906102c99190611b4b565b610ed2565b005b3480156102dc57600080fd5b506102e5610fc5565b6040516102f29190611c49565b60405180910390f35b60016020528060005260406000206000915090508060000160009054906101000a900460ff16908060010154908060020154908060040154908060050154908060060160009054906101000a900473ffffffffffffffffffffffffffffffffffffffff16905086565b3482146103a6576040517f08c379a000000000000000000000000000000000000000000000000000000000815260040161039d90611efd565b60405180910390fd5b6000600160008581526020019081526020016000209050600060028111156103d1576103d06114f8565b5b8160000160009054906101000a900460ff1660028111156103f5576103f46114f8565b5b14610435576040517f08c379a000000000000000000000000000000000000000000000000000000000815260040161042c90611f69565b60405180910390fd5b600033905083600360008373ffffffffffffffffffffffffffffffffffffffff1673ffffffffffffffffffffffffffffffffffffffff1681526020019081526020016000206000878152602001908152602001600020600082825461049a9190611fb8565b9250508190555081600301819080600181540180825580915050600190039060005260206000200160009091909190916101000a81548173ffffffffffffffffffffffffffffffffffffffff021916908373ffffffffffffffffffffffffffffffffffffffff16021790555082600460008460030160008154811061052257610521611fec565b5b9060005260206000200160009054906101000a900473ffffffffffffffffffffffffffffffffffffffff1673ffffffffffffffffffffffffffffffffffffffff1673ffffffffffffffffffffffffffffffffffffffff1681526020019081526020016000206000878152602001908152602001600020600084600101548152602001908152602001600020600082015181600001556020820151816001015560408201518160020155606082015181600301559050507f03dfbe1fcb4e2d61f3b4a0c93d8f814c92250618b3387f396cc9fc9fafe2c20385828660405161060b9392919061201b565b60405180910390a15050505050565b600060016000858152602001908152602001600020905060016002811115610645576106446114f8565b5b8160000160009054906101000a900460ff166002811115610669576106686114f8565b5b146106a9576040517f08c379a00000000000000000000000000000000000000000000000000000000081526004016106a09061209e565b60405180910390fd5b60006002600086815260200190815260200160002060008360010154815260200190815260200160002090503373ffffffffffffffffffffffffffffffffffffffff168260030182600101548154811061070657610705611fec565b5b9060005260206000200160009054906101000a900473ffffffffffffffffffffffffffffffffffffffff1673ffffffffffffffffffffffffffffffffffffffff1614610787576040517f08c379a000000000000000000000000000000000000000000000000000000000815260040161077e9061210a565b60405180910390fd5b6000600381111561079b5761079a6114f8565b5b8460038111156107ae576107ad6114f8565b5b03610873576000816002018260010154815481106107cf576107ce611fec565b5b906000526020600020015482600301546107e9919061212a565b905080600360003373ffffffffffffffffffffffffffffffffffffffff1673ffffffffffffffffffffffffffffffffffffffff1681526020019081526020016000206000888152602001908152602001600020600082825461084b919061212a565b92505081905550808360040160008282546108669190611fb8565b9250508190555050610b03565b60026003811115610887576108866114f8565b5b84600381111561089a576108996114f8565b5b0361092857806002016001815481106108b6576108b5611fec565b5b9060005260206000200154816002016000815481106108d8576108d7611fec565b5b906000526020600020015414610923576040517f08c379a000000000000000000000000000000000000000000000000000000000815260040161091a906121aa565b60405180910390fd5b610b02565b6001600381111561093c5761093b6114f8565b5b84600381111561094f5761094e6114f8565b5b03610a5f576000816002018260010154815481106109705761096f611fec565b5b9060005260206000200154846109869190611fb8565b9050816003015481116109ce576040517f08c379a00000000000000000000000000000000000000000000000000000000081526004016109c590612216565b60405180910390fd5b83600360003373ffffffffffffffffffffffffffffffffffffffff1673ffffffffffffffffffffffffffffffffffffffff16815260200190815260200160002060008881526020019081526020016000206000828254610a2e919061212a565b9250508190555083836004016000828254610a499190611fb8565b9250508190555080826003018190555050610b01565b600380811115610a7257610a716114f8565b5b846003811115610a8557610a846114f8565b5b03610b00578160040154600360003373ffffffffffffffffffffffffffffffffffffffff1673ffffffffffffffffffffffffffffffffffffffff16815260200190815260200160002060008781526020019081526020016000206000828254610aee9190611fb8565b92505081905550610aff8286610fcb565b5b5b5b5b600380811115610b1657610b156114f8565b5b846003811115610b2957610b286114f8565b5b14610b5457600260018260010154610b419190611fb8565b610b4b9190612265565b81600101819055505b5050505050565b505050565b60056020528260005260406000206020528160005260406000208181548110610b8857600080fd5b906000526020600020906020918282040191900692509250509054906101000a900460ff1681565b6040518060e0016040528060006002811115610bcf57610bce6114f8565b5b815260200160008152602001838152602001600067ffffffffffffffff811115610bfc57610bfb611636565b5b604051908082528060200260200182016040528015610c2a5781602001602082028036833780820191505090505b508152602001600081526020018281526020013373ffffffffffffffffffffffffffffffffffffffff16815250600160008054815260200190815260200160002060008201518160000160006101000a81548160ff02191690836002811115610c9657610c956114f8565b5b021790555060208201518160010155604082015181600201556060820151816003019080519060200190610ccb9291906113da565b506080820151816004015560a0820151816005015560c08201518160060160006101000a81548173ffffffffffffffffffffffffffffffffffffffff021916908373ffffffffffffffffffffffffffffffffffffffff1602179055509050507ffd4197db46994c49d87bb0e8843fc638f5892cfe47c985dbb8986a685aa1d5d36000546001600080548152602001908152602001600020604051610d70929190612502565b60405180910390a1600080815480929190610d8a90612532565b91905055505050565b6002602052816000526040600020602052806000526040600020600091509150508060000160009054906101000a900460ff16908060010154908060030154905083565b6003602052816000526040600020602052806000526040600020600091509150505481565b600460205282600052604060002060205281600052604060002060205280600052604060002060009250925050508060000154908060010154908060020154908060030154905084565b600060016000848152602001908152602001600020905060018160000160006101000a81548160ff02191690836002811115610e8557610e846114f8565b5b0217905550610e948184610fcb565b7f0ebd071837ebbf9241663707774610bd0aabfaf7ec715a823a8ef1b37ddd25298284604051610ec5929190612667565b60405180910390a1505050565b600060016000848152602001908152602001600020905060006005600085815260200190815260200160002060008360010154815260200190815260200160002090506000818054905090505b83811015610f7f5781610f306112e2565b90806001815401808255809150506001900390600052602060002090602091828204019190069091909190916101000a81548160ff021916908360ff1602179055508080600101915050610f1f565b507f63a0aadb53e5edd38a92b4d377954d99180fa11cbc30b3bf065a620564c6c0c484836001015483604051610fb7939291906133ee565b60405180910390a150505050565b60005481565b600060028360010154610fde9190612265565b90506000600260018560010154610ff59190611fb8565b610fff9190612265565b9050600084600101541461106c5760006002600085815260200190815260200160002060008660010154815260200190815260200160002060000160006101000a81548160ff02191690831515021790555083600101600081548092919061106690612532565b91905055505b60008460040181905550600060026000858152602001908152602001600020600086600101548152602001908152602001600020905060018160000160006101000a81548160ff021916908315150217905550600285600501546110d0919061342c565b8160030181905550828160010181905550600285600501546110f2919061342c565b85600501546111019190611fb8565b8560040160008282546111149190611fb8565b92505081905550846005015481600201848154811061113657611135611fec565b5b906000526020600020018190555060028560050154611155919061342c565b81600201838154811061116b5761116a611fec565b5b906000526020600020018190555084600501546003600087600301868154811061119857611197611fec565b5b9060005260206000200160009054906101000a900473ffffffffffffffffffffffffffffffffffffffff1673ffffffffffffffffffffffffffffffffffffffff1673ffffffffffffffffffffffffffffffffffffffff1681526020019081526020016000206000868152602001908152602001600020600082825461121d919061212a565b9250508190555060028560050154611235919061342c565b6003600087600301858154811061124f5761124e611fec565b5b9060005260206000200160009054906101000a900473ffffffffffffffffffffffffffffffffffffffff1673ffffffffffffffffffffffffffffffffffffffff1673ffffffffffffffffffffffffffffffffffffffff168152602001908152602001600020600086815260200190815260200160002060008282546112d4919061212a565b925050819055505050505050565b6000804342336040516020016112f891906134b6565b6040516020818303038152906040528051906020012060001c61131b91906134d1565b45424160405160200161132e919061353d565b6040516020818303038152906040528051906020012060001c61135191906134d1565b444261135d9190611fb8565b6113679190611fb8565b6113719190611fb8565b61137b9190611fb8565b6113859190611fb8565b6040516020016113959190613579565b6040516020818303038152906040528051906020012060001c90506103e880826113bf91906134d1565b6113c9919061342c565b816113d4919061212a565b91505090565b828054828255906000526020600020908101928215611453579160200282015b828111156114525782518260006101000a81548173ffffffffffffffffffffffffffffffffffffffff021916908373ffffffffffffffffffffffffffffffffffffffff160217905550916020019190600101906113fa565b5b5090506114609190611464565b5090565b5b8082111561147d576000816000905550600101611465565b5090565b6000604051905090565b600080fd5b600080fd5b6000819050919050565b6114a881611495565b81146114b357600080fd5b50565b6000813590506114c58161149f565b92915050565b6000602082840312156114e1576114e061148b565b5b60006114ef848285016114b6565b91505092915050565b7f4e487b7100000000000000000000000000000000000000000000000000000000600052602160045260246000fd5b60038110611538576115376114f8565b5b50565b600081905061154982611527565b919050565b60006115598261153b565b9050919050565b6115698161154e565b82525050565b61157881611495565b82525050565b600073ffffffffffffffffffffffffffffffffffffffff82169050919050565b60006115a98261157e565b9050919050565b6115b98161159e565b82525050565b600060c0820190506115d46000830189611560565b6115e1602083018861156f565b6115ee604083018761156f565b6115fb606083018661156f565b611608608083018561156f565b61161560a08301846115b0565b979650505050505050565b600080fd5b6000601f19601f8301169050919050565b7f4e487b7100000000000000000000000000000000000000000000000000000000600052604160045260246000fd5b61166e82611625565b810181811067ffffffffffffffff8211171561168d5761168c611636565b5b80604052505050565b60006116a0611481565b90506116ac8282611665565b919050565b6000819050919050565b6116c4816116b1565b81146116cf57600080fd5b50565b6000813590506116e1816116bb565b92915050565b6000608082840312156116fd576116fc611620565b5b6117076080611696565b90506000611717848285016116d2565b600083015250602061172b848285016116d2565b602083015250604061173f848285016116d2565b6040830152506060611753848285016116d2565b60608301525092915050565b600080600060c084860312156117785761177761148b565b5b6000611786868287016114b6565b9350506020611797868287016114b6565b92505060406117a8868287016116e7565b9150509250925092565b600481106117bf57600080fd5b50565b6000813590506117d1816117b2565b92915050565b6000806000606084860312156117f0576117ef61148b565b5b60006117fe868287016114b6565b935050602061180f868287016117c2565b9250506040611820868287016114b6565b9150509250925092565b600080fd5b600067ffffffffffffffff82111561184a57611849611636565b5b602082029050602081019050919050565b600080fd5b600061187361186e8461182f565b611696565b905080838252602082019050602084028301858111156118965761189561185b565b5b835b818110156118bf57806118ab88826114b6565b845260208401935050602081019050611898565b5050509392505050565b600082601f8301126118de576118dd61182a565b5b81356118ee848260208601611860565b91505092915050565b600067ffffffffffffffff82111561191257611911611636565b5b602082029050602081019050919050565b600060ff82169050919050565b61193981611923565b811461194457600080fd5b50565b60008135905061195681611930565b92915050565b60006040828403121561197257611971611620565b5b61197c6040611696565b9050600061198c84828501611947565b60008301525060206119a084828501611947565b60208301525092915050565b60006119bf6119ba846118f7565b611696565b905080838252602082019050604084028301858111156119e2576119e161185b565b5b835b81811015611a0b57806119f7888261195c565b8452602084019350506040810190506119e4565b5050509392505050565b600082601f830112611a2a57611a2961182a565b5b8135611a3a8482602086016119ac565b91505092915050565b600080600060608486031215611a5c57611a5b61148b565b5b6000611a6a868287016114b6565b935050602084013567ffffffffffffffff811115611a8b57611a8a611490565b5b611a97868287016118c9565b925050604084013567ffffffffffffffff811115611ab857611ab7611490565b5b611ac486828701611a15565b9150509250925092565b600080600060608486031215611ae757611ae661148b565b5b6000611af5868287016114b6565b9350506020611b06868287016114b6565b9250506040611b17868287016114b6565b9150509250925092565b611b2a81611923565b82525050565b6000602082019050611b456000830184611b21565b92915050565b60008060408385031215611b6257611b6161148b565b5b6000611b70858286016114b6565b9250506020611b81858286016114b6565b9150509250929050565b60008115159050919050565b611ba081611b8b565b82525050565b6000606082019050611bbb6000830186611b97565b611bc8602083018561156f565b611bd5604083018461156f565b949350505050565b611be68161159e565b8114611bf157600080fd5b50565b600081359050611c0381611bdd565b92915050565b60008060408385031215611c2057611c1f61148b565b5b6000611c2e85828601611bf4565b9250506020611c3f858286016114b6565b9150509250929050565b6000602082019050611c5e600083018461156f565b92915050565b600080600060608486031215611c7d57611c7c61148b565b5b6000611c8b86828701611bf4565b9350506020611c9c868287016114b6565b9250506040611cad868287016114b6565b9150509250925092565b611cc0816116b1565b82525050565b6000608082019050611cdb6000830187611cb7565b611ce86020830186611cb7565b611cf56040830185611cb7565b611d026060830184611cb7565b95945050505050565b600067ffffffffffffffff821115611d2657611d25611636565b5b602082029050602081019050919050565b600060408284031215611d4d57611d4c611620565b5b611d576040611696565b90506000611d6784828501611947565b6000830152506020611d7b84828501611947565b60208301525092915050565b6000611d9a611d9584611d0b565b611696565b90508083825260208201905060408402830185811115611dbd57611dbc61185b565b5b835b81811015611de65780611dd28882611d37565b845260208401935050604081019050611dbf565b5050509392505050565b600082601f830112611e0557611e0461182a565b5b8135611e15848260208601611d87565b91505092915050565b60008060408385031215611e3557611e3461148b565b5b6000611e43858286016114b6565b925050602083013567ffffffffffffffff811115611e6457611e63611490565b5b611e7085828601611df0565b9150509250929050565b600082825260208201905092915050565b7f6275792d696e206973206e6f7420657175616c20746f20746865206d6f6e657960008201527f2073656e74000000000000000000000000000000000000000000000000000000602082015250565b6000611ee7602583611e7a565b9150611ef282611e8b565b604082019050919050565b60006020820190508181036000830152611f1681611eda565b9050919050565b7f47616d6520646f6573206e6f7420657869737400000000000000000000000000600082015250565b6000611f53601383611e7a565b9150611f5e82611f1d565b602082019050919050565b60006020820190508181036000830152611f8281611f46565b9050919050565b7f4e487b7100000000000000000000000000000000000000000000000000000000600052601160045260246000fd5b6000611fc382611495565b9150611fce83611495565b9250828201905080821115611fe657611fe5611f89565b5b92915050565b7f4e487b7100000000000000000000000000000000000000000000000000000000600052603260045260246000fd5b6000606082019050612030600083018661156f565b61203d60208301856115b0565b61204a604083018461156f565b949350505050565b7f47616d65206973206e6f7420696e2070726f6772657373000000000000000000600082015250565b6000612088601783611e7a565b915061209382612052565b602082019050919050565b600060208201905081810360008301526120b78161207b565b9050919050565b7f4e6f7420796f7572207475726e00000000000000000000000000000000000000600082015250565b60006120f4600d83611e7a565b91506120ff826120be565b602082019050919050565b60006020820190508181036000830152612123816120e7565b9050919050565b600061213582611495565b915061214083611495565b925082820390508181111561215857612157611f89565b5b92915050565b7f436865636b206e6f7420706f737369626c650000000000000000000000000000600082015250565b6000612194601283611e7a565b915061219f8261215e565b602082019050919050565b600060208201905081810360008301526121c381612187565b9050919050565b7f526169736520616d6f756e74206e6f7420656e6f756768000000000000000000600082015250565b6000612200601783611e7a565b915061220b826121ca565b602082019050919050565b6000602082019050818103600083015261222f816121f3565b9050919050565b7f4e487b7100000000000000000000000000000000000000000000000000000000600052601260045260246000fd5b600061227082611495565b915061227b83611495565b92508261228b5761228a612236565b5b828206905092915050565b60008160001c9050919050565b600060ff82169050919050565b60006122c36122be83612296565b6122a3565b9050919050565b6122d38161154e565b82525050565b6000819050919050565b60006122f66122f183612296565b6122d9565b9050919050565b61230681611495565b82525050565b600081549050919050565b600082825260208201905092915050565b60008190508160005260206000209050919050565b6123468161159e565b82525050565b6000612358838361233d565b60208301905092915050565b600073ffffffffffffffffffffffffffffffffffffffff82169050919050565b600061239761239283612296565b612364565b9050919050565b60006123aa8254612384565b9050919050565b6000600182019050919050565b60006123c98261230c565b6123d38185612317565b93506123de83612328565b8060005b83811015612416576123f38261239e565b6123fd888261234c565b9750612408836123b1565b9250506001810190506123e2565b5085935050505092915050565b600060e08301600080840154905061243a816122b0565b61244760008701826122ca565b5060018401549050612458816122e3565b61246560208701826122fd565b5060028401549050612476816122e3565b61248360408701826122fd565b5060038401858303606087015261249a83826123be565b925050600484015490506124ad816122e3565b6124ba60808701826122fd565b50600584015490506124cb816122e3565b6124d860a08701826122fd565b50600684015490506124e981612384565b6124f660c087018261233d565b50819250505092915050565b6000604082019050612517600083018561156f565b81810360208301526125298184612423565b90509392505050565b600061253d82611495565b91507fffffffffffffffffffffffffffffffffffffffffffffffffffffffffffffffff820361256f5761256e611f89565b5b600182019050919050565b600081519050919050565b600082825260208201905092915050565b6000819050602082019050919050565b6125af81611923565b82525050565b6040820160008201516125cb60008501826125a6565b5060208201516125de60208501826125a6565b50505050565b60006125f083836125b5565b60408301905092915050565b6000602082019050919050565b60006126148261257a565b61261e8185612585565b935061262983612596565b8060005b8381101561265a57815161264188826125e4565b975061264c836125fc565b92505060018101905061262d565b5085935050505092915050565b600060408201905081810360008301526126818185612609565b9050612690602083018461156f565b9392505050565b600081549050919050565b600082825260208201905092915050565b60008190508160005260206000209050919050565b600060ff82169050919050565b60006126e86126e383612296565b6126c8565b9050919050565b60008160081c9050919050565b600061270f61270a836126ef565b6126c8565b9050919050565b60008160101c9050919050565b600061273661273183612716565b6126c8565b9050919050565b60008160181c9050919050565b600061275d6127588361273d565b6126c8565b9050919050565b60008160201c9050919050565b600061278461277f83612764565b6126c8565b9050919050565b60008160281c9050919050565b60006127ab6127a68361278b565b6126c8565b9050919050565b60008160301c9050919050565b60006127d26127cd836127b2565b6126c8565b9050919050565b60008160381c9050919050565b60006127f96127f4836127d9565b6126c8565b9050919050565b60008160401c9050919050565b600061282061281b83612800565b6126c8565b9050919050565b60008160481c9050919050565b600061284761284283612827565b6126c8565b9050919050565b60008160501c9050919050565b600061286e6128698361284e565b6126c8565b9050919050565b60008160581c9050919050565b600061289561289083612875565b6126c8565b9050919050565b60008160601c9050919050565b60006128bc6128b78361289c565b6126c8565b9050919050565b60008160681c9050919050565b60006128e36128de836128c3565b6126c8565b9050919050565b60008160701c9050919050565b600061290a612905836128ea565b6126c8565b9050919050565b60008160781c9050919050565b600061293161292c83612911565b6126c8565b9050919050565b60008160801c9050919050565b600061295861295383612938565b6126c8565b9050919050565b60008160881c9050919050565b600061297f61297a8361295f565b6126c8565b9050919050565b60008160901c9050919050565b60006129a66129a183612986565b6126c8565b9050919050565b60008160981c9050919050565b60006129cd6129c8836129ad565b6126c8565b9050919050565b60008160a01c9050919050565b60006129f46129ef836129d4565b6126c8565b9050919050565b60008160a81c9050919050565b6000612a1b612a16836129fb565b6126c8565b9050919050565b60008160b01c9050919050565b6000612a42612a3d83612a22565b6126c8565b9050919050565b60008160b81c9050919050565b6000612a69612a6483612a49565b6126c8565b9050919050565b60008160c01c9050919050565b6000612a90612a8b83612a70565b6126c8565b9050919050565b60008160c81c9050919050565b6000612ab7612ab283612a97565b6126c8565b9050919050565b60008160d01c9050919050565b6000612ade612ad983612abe565b6126c8565b9050919050565b60008160d81c9050919050565b6000612b05612b0083612ae5565b6126c8565b9050919050565b60008160e01c9050919050565b6000612b2c612b2783612b0c565b6126c8565b9050919050565b60008160e81c9050919050565b6000612b53612b4e83612b33565b6126c8565b9050919050565b60008160f01c9050919050565b6000612b7a612b7583612b5a565b6126c8565b9050919050565b60008160f81c9050919050565b6000612ba1612b9c83612b81565b6126c8565b9050919050565b6000612bb382612697565b612bbd81856126a2565b935083612bc9846126b3565b6000600115612ef6575b83600160200382011015612ef5578154612bf588612bf0836126d5565b6125a6565b602088019750612c0d88612c08836126fc565b6125a6565b602088019750612c2588612c2083612723565b6125a6565b602088019750612c3d88612c388361274a565b6125a6565b602088019750612c5588612c5083612771565b6125a6565b602088019750612c6d88612c6883612798565b6125a6565b602088019750612c8588612c80836127bf565b6125a6565b602088019750612c9d88612c98836127e6565b6125a6565b602088019750612cb588612cb08361280d565b6125a6565b602088019750612ccd88612cc883612834565b6125a6565b602088019750612ce588612ce08361285b565b6125a6565b602088019750612cfd88612cf883612882565b6125a6565b602088019750612d1588612d10836128a9565b6125a6565b602088019750612d2d88612d28836128d0565b6125a6565b602088019750612d4588612d40836128f7565b6125a6565b602088019750612d5d88612d588361291e565b6125a6565b602088019750612d7588612d7083612945565b6125a6565b602088019750612d8d88612d888361296c565b6125a6565b602088019750612da588612da083612993565b6125a6565b602088019750612dbd88612db8836129ba565b6125a6565b602088019750612dd588612dd0836129e1565b6125a6565b602088019750612ded88612de883612a08565b6125a6565b602088019750612e0588612e0083612a2f565b6125a6565b602088019750612e1d88612e1883612a56565b6125a6565b602088019750612e3588612e3083612a7d565b6125a6565b602088019750612e4d88612e4883612aa4565b6125a6565b602088019750612e6588612e6083612acb565b6125a6565b602088019750612e7d88612e7883612af2565b6125a6565b602088019750612e9588612e9083612b19565b6125a6565b602088019750612ead88612ea883612b40565b6125a6565b602088019750612ec588612ec083612b67565b6125a6565b602088019750612edd88612ed883612b8e565b6125a6565b60208801975060018301925050602081019050612bd3565b5b6001156133e157815484821015612f2657612f1988612f14836126d5565b6125a6565b6020880197506001820191505b84821015612f4d57612f4088612f3b836126fc565b6125a6565b6020880197506001820191505b84821015612f7457612f6788612f6283612723565b6125a6565b6020880197506001820191505b84821015612f9b57612f8e88612f898361274a565b6125a6565b6020880197506001820191505b84821015612fc257612fb588612fb083612771565b6125a6565b6020880197506001820191505b84821015612fe957612fdc88612fd783612798565b6125a6565b6020880197506001820191505b848210156130105761300388612ffe836127bf565b6125a6565b6020880197506001820191505b848210156130375761302a88613025836127e6565b6125a6565b6020880197506001820191505b8482101561305e576130518861304c8361280d565b6125a6565b6020880197506001820191505b84821015613085576130788861307383612834565b6125a6565b6020880197506001820191505b848210156130ac5761309f8861309a8361285b565b6125a6565b6020880197506001820191505b848210156130d3576130c6886130c183612882565b6125a6565b6020880197506001820191505b848210156130fa576130ed886130e8836128a9565b6125a6565b6020880197506001820191505b84821015613121576131148861310f836128d0565b6125a6565b6020880197506001820191505b848210156131485761313b88613136836128f7565b6125a6565b6020880197506001820191505b8482101561316f576131628861315d8361291e565b6125a6565b6020880197506001820191505b84821015613196576131898861318483612945565b6125a6565b6020880197506001820191505b848210156131bd576131b0886131ab8361296c565b6125a6565b6020880197506001820191505b848210156131e4576131d7886131d283612993565b6125a6565b6020880197506001820191505b8482101561320b576131fe886131f9836129ba565b6125a6565b6020880197506001820191505b848210156132325761322588613220836129e1565b6125a6565b6020880197506001820191505b848210156132595761324c8861324783612a08565b6125a6565b6020880197506001820191505b84821015613280576132738861326e83612a2f565b6125a6565b6020880197506001820191505b848210156132a75761329a8861329583612a56565b6125a6565b6020880197506001820191505b848210156132ce576132c1886132bc83612a7d565b6125a6565b6020880197506001820191505b848210156132f5576132e8886132e383612aa4565b6125a6565b6020880197506001820191505b8482101561331c5761330f8861330a83612acb565b6125a6565b6020880197506001820191505b84821015613343576133368861333183612af2565b6125a6565b6020880197506001820191505b8482101561336a5761335d8861335883612b19565b6125a6565b6020880197506001820191505b84821015613391576133848861337f83612b40565b6125a6565b6020880197506001820191505b848210156133b8576133ab886133a683612b67565b6125a6565b6020880197506001820191505b848210156133df576133d2886133cd83612b8e565b6125a6565b6020880197506001820191505b505b8694505050505092915050565b6000606082019050613403600083018661156f565b613410602083018561156f565b81810360408301526134228184612ba8565b9050949350505050565b600061343782611495565b915061344283611495565b925082820261345081611495565b9150828204841483151761346757613466611f89565b5b5092915050565b60008160601b9050919050565b60006134868261346e565b9050919050565b60006134988261347b565b9050919050565b6134b06134ab8261159e565b61348d565b82525050565b60006134c2828461349f565b60148201915081905092915050565b60006134dc82611495565b91506134e783611495565b9250826134f7576134f6612236565b5b828204905092915050565b600061350d8261157e565b9050919050565b600061351f8261347b565b9050919050565b61353761353282613502565b613514565b82525050565b60006135498284613526565b60148201915081905092915050565b6000819050919050565b61357361356e82611495565b613558565b82525050565b60006135858284613562565b6020820191508190509291505056fea26469706673582212204486c69ea24d3b46466a88db5049a17d6ba2ccb355a94a26e725fa256173d02b64736f6c63430008160033",
  "linkReferences": {},
  "deployedLinkReferences": {}
}